:10000000FFC0000019C1000017C1000015C10000A9
:1000100013C1000011C100000FC100000DC100009C
:100020000BC1000009C1000007C1000085C6000027
:1000300049C6000001C10000FFC00000FDC0000073
:10004000FBC00000F9C00000F7C00000F5C00000D0
:10005000F3C00000F1C00000EFC00000A9C1000023
:10006000EBC00000E9C00000E7C00000E5C00000F0
:10007000E3C00000E1C00000DFC00000DDC0000000
:10008000DBC00000D9C00000D7C00000D5C0000010
:10009000D3C00000D1C0000012011001020000080E
:1000A000EB034B2001000102DC01120110010000F2
:1000B0000008EB03482000000102000109023E0095
:1000C000020100C0320904000001020201000524FF
:1000D000000110042402060524060001070582031E
:1000E0000800FF09040100020A00000007050402DD
:1000F000400001070583024000010902650002017A
:1001000000C03209040000000101000009240100C0
:100110000109000101090401000201030000072494
:10012000010001410006240201010006240202022E
:100130000009240301030102010009240302040150
:100140000101000905010240000000000525010130
:100150000109058202400000000005250101030499
:100160000309043203410072006400750069006EE7
:10017000006F00200028007700770077002E0061D4
:100180000072006400750069006E006F002E00634D
:100190000063002900000024036B007500770061F4
:1001A0000074006100790040006E00690066007410
:1001B0000079002E0063006F006D000000180341FD
:1001C0000072006400750069006E006F0020005529
:1001D000006E006F00000026034D004900440049F6
:1001E000002F004D004F0043004F00200066006FBD
:1001F00000720020004C0055004600410000000045
:1002000011241FBECFEFD2E0DEBFCDBF11E0A0E0D2
:10021000B1E0EAE3F5E102C005900D92A033B10729
:10022000D9F712E0A0E3B1E001C01D92AE37B107EB
:10023000E1F7B9D20C949B0AE3CE9C01DC01AE57E6
:10024000BF4FED91FC91119741911196FC93EE9364
:1002500080589F4FE817F90711F42D933C939FB7EF
:10026000F894F901EC57FF4F8081815080839FBF44
:10027000842F0895CF93DF93EC0130913101988161
:100280009F70923008F1DE0121E0E32FF0E0EB5B9C
:10029000FE4F11968C91119780833F5F3F71213003
:1002A00029F4953089F09F3059F40EC0223041F482
:1002B000923051F0963041F09C3031F09D3021F079
:1002C0002F5F1196243009F7653018F0249664509A
:1002D000D6CF30933101DF91CF91089508950895DD
:1002E000DF92EF92FF920F931F93FC01848981307C
:1002F00019F0823021F405C040E3D42E04C0DD247F
:1003000002C030E2D32E8389823011F488E0D82AEB
:100310008589873031F0883031F0863031F482E0E1
:1003200003C084E001C086E0D82A1092C900109270
:10033000C8001092CA00E784F0880189128980E021
:10034000E81681EEF80680E0080780E0180719F447
:1003500020E130E010C0C801B701969587957795E8
:10036000679560587B47814E9F4FA80197010E9477
:10037000790A215030403093CD002093CC00D092A8
:10038000CA0080E0E81681EEF80680E0080780E009
:10039000180711F082E001C080E08093C80088E96E
:1003A0008093C9001F910F91FF90EF90DF90089507
:1003B0001F920F920FB60F9211242F938F939F933A
:1003C000EF93FF9380910001882319F59091CE005F
:1003D0008EB38430F1F4E091E801F091E90190836B
:1003E000E091E801F091E901CF0101969093E901D4
:1003F0008093E801885E914021F488E691E0928341
:1004000081839FB7F8948091EC018F5F8093EC011A
:100410009FBFFF91EF919F918F912F910F900FBEF2
:100420000F901F901895FC01858580FF02C05F9892
:1004300008955F9A089580910001882319F481E05E
:1004400091E063C7089580910001813021F487E134
:1004500091E00C94450A81E091E00DC784B7877F55
:1004600084BF88E10FB6F89480936000109260001A
:100470000FBE14B884E085B91A9902C01092000129
:1004800080910001813039F48FE18093CC0088E1C4
:100490008093C90010C087E690E09093CD008093D0
:1004A000CC0086E08093CA001092C80088E1809357
:1004B000C900539A5A9AFBD38AB180638AB98BB127
:1004C00080638BB984E085BD80910001882311F49D
:1004D0005F9A579A08950F931F93CF93DF932FB787
:1004E000F8948DEE91E090936E0280936D0290935C
:1004F000700280936F022FBF2FB7F89488E691E0C7
:100500009093E9018093E8019093EB018093EA01D5
:100510002FBF7894CDEED1E003E08FB7F89490919F
:1005200071028FBF903809F181E091E01AD697FDF2
:100530001CC0E0916D02F0916E028083E0916D022B
:10054000F0916E02CF01019690936E0280936D023E
:100550008D56924011F4D283C1839FB7F894809155
:1005600071028F5F809371029FBF8FB7F8941091D3
:10057000EC018FBFA89902C0113678F1A89A80913A
:10058000EC01882361F05D980093650108C088E65E
:1005900091E053DE682F81E091E049D6115011239C
:1005A000B1F780916501882351F0809165018150F8
:1005B0008093650180916501882309F45D9A80919B
:1005C0006601882351F08091660181508093660115
:1005D00080916601882309F45C9A8FB7F894909112
:1005E00071028FBF992369F08DEE91E026DE982F7E
:1005F0008091C80085FFFCCF9093CE005C9800935B
:10060000660181E091E004D699D587CF382F80919B
:100610003301882331F0373F09F053C01092330182
:100620002CC0383F50F08FE080933D0130933E0165
:1006300010923F011092400142C037FF08C0303F86
:1006400021F481E08093330118C010923401E091CD
:100650003401EE23A1F4232F22952F70822F90E0F6
:10066000877090700196880F991F809334012093B2
:100670003501309336011092380180E00895F0E0A2
:10068000DF01A05EBE4F9C91E170F070EB5CFE4F0D
:100690003283892F8F708093340197FF12C080912D
:1006A000350190913601A0913701B09138018093C6
:1006B0003D0190933E01A0933F01B093400181E042
:1006C000089580E00895EF92FF920F931F93DF93B8
:1006D000CF9300D000D0CDB7DEB7789403E07E0191
:1006E0000894E11CF11C8091C80087FF0BC0109199
:1006F00030018091CE008ADF182B109330015D9875
:100700000093650180913001882389F087E191E0B1
:100710006DE371E097D687E191E080D610923001C9
:1007200006C0C70164E0A6DD5C980093660187E11E
:1007300091E0B70155D68823A1F78091C80085FFC5
:1007400011C09091320180913101891759F0E92F40
:10075000F0E0EB5BFE4F80818093CE009F5F9F7146
:1007600090933201A89B1DC0A89A809165018823AF
:1007700051F0809165018150809365018091650100
:10078000882309F45D9A80916601882351F0809155
:10079000660181508093660180916601882309F487
:1007A0005C9ACCD4A0CF5ADE80910001813011F444
:1007B0008ADF01C090DE80E090E00895DA01923097
:1007C00089F09330E9F0913009F03FC08091000149
:1007D000813019F0E8E9F0E002C0EAEAF0E022E155
:1007E00030E037C080910001813029F0ECEBF0E07F
:1007F0002EE330E02EC0EAEFF0E025E630E029C03D
:10080000813049F0813018F08230F9F410C0EFE502
:10081000F1E0849113C080910001813021F4E7E977
:10082000F1E084910BC0E3E6F1E0849107C0809190
:100830000001813031F4E7EDF1E08491282F30E0C0
:1008400008C0EDEBF1E08491F9CFE0E0F0E020E0CA
:1008500030E0ED93FC93C901089528E030E040E0DA
:1008600003C04F5F220F331F28173907D0F3842F9F
:100870008295807F08958093E9008091EB008160EC
:100880008093EB001092ED006093EC004093ED003C
:100890008091EE00881F8827881F08951092F40029
:1008A00090E09093E9001092F0001092E80010920E
:1008B000ED008091EB008E7F8093EB009F5F953081
:1008C00081F708958091760288238CF403C08EB35B
:1008D0008823B1F08091E80082FFF9CF8091E80091
:1008E0008B778093E80008958EB3882349F0809138
:1008F000E80080FFF9CF8091E8008E778093E800D0
:10090000089594E68091EC0080FF05C08091E80096
:1009100080FF05C023C08091E80082FD1FC08EB318
:10092000882311F482E008958EB3853011F483E0BA
:1009300008958091EB0085FF02C081E008958091C9
:10094000E10082FFDFCF8091E1008B7F8093E100A7
:10095000992311F484E008959150D4CF80E0089554
:10096000DF92EF92FF920F931F93CF93DF93182F95
:10097000092FEB017A01C5DFD82E882319F5812FC5
:10098000902F9C0189011CC08091E80085FD12C058
:100990008091E8008E778093E800E114F10431F053
:1009A000F7010995813011F485E00DC0AADF882395
:1009B00039F009C0F80181918F018093F1002197EE
:1009C000209711F78D2DDF91CF911F910F91FF90FF
:1009D000EF90DF900895DF92EF92FF920F931F93B5
:1009E000CF93DF93182F092FEB017A018ADFD82EDE
:1009F000882319F5812F902F9C0189011CC08091BB
:100A0000E80085FD12C08091E8008B778093E800B4
:100A1000E114F10431F0F7010995813011F485E01A
:100A20000DC06FDF882339F009C08091F100F80113
:100A300081938F012197209711F78D2DDF91CF9111
:100A40001F910F91FF90EF90DF9008959C014091CE
:100A50007C0250917D024617570718F4F90120E0F7
:100A600038C06115710511F0AB01F8CF8091E80035
:100A70008E778093E80040E050E0F0CF8091E8006E
:100A800083FF02C081E008958091E80082FD2DC0BF
:100A90008EB3882381F18EB3853079F18091E8009F
:100AA00080FF17C09091F20006C081918093F10001
:100AB000415050409F5F4115510511F09830A8F307
:100AC00020E0983009F421E08091E8008E7780934F
:100AD000E8004115510591F6222381F606C08EB338
:100AE000882349F08EB3853041F08091E80082FF81
:100AF000F6CF80E0089582E0089583E008959C0198
:100B000040917C0250917D024617570710F490E007
:100B10003BC06115710511F0AB01F9CF8091E80080
:100B20008E778093E80040E050E0F1CF8091E800BC
:100B300083FF02C081E008958091E80082FD30C00B
:100B40008EB3882399F18EB3853091F18091E800BE
:100B500080FF1AC08091F20009C0F9012F5F3F4F5A
:100B6000E491E093F100415050408F5F41155105F1
:100B700011F0883090F390E0883009F491E0809192
:100B8000E8008E778093E8004115510579F69923A6
:100B900069F606C08EB3882349F08EB3853041F0E4
:100BA0008091E80082FFF6CF80E0089582E008950A
:100BB00083E008959C016115710529F48091E80096
:100BC0008B778093E800F90120C08091E80083FFD3
:100BD00002C081E008958EB3882339F18EB3853049
:100BE00031F18091E80082FFF0CF06C08091F100E2
:100BF00081936150704021F08091F2008823B1F719
:100C00008091E8008B778093E80061157105E9F623
:100C100006C08EB3882349F08EB3853041F08091B1
:100C2000E80080FFF6CF80E0089582E0089583E039
:100C3000089542D044D01EBA1092740210927302EA
:100C40001092720284E089BD89B5826089BD09B4C1
:100C500000FEFDCF8091D800982F9F779093D80009
:100C600080688093D800809163008E7F80936300BA
:100C70008091D8008F7D8093D8008091E0008E7F96
:100C80008093E0008091E1008E7F8093E10080916D
:100C9000E20081608093E2008091E100877F809391
:100CA000E1008091E20088608093E2000895C1DF56
:100CB00081E08093750208951092E20008951092E9
:100CC000E10008951F920F920FB60F9211241F9307
:100CD0002F933F934F935F936F937F938F939F9344
:100CE000AF93BF93EF93FF93E9EEF0E0108117709D
:100CF0001082E0EFF0E08081877F80837894C3D01A
:100D0000F894A9EEB0E01C92E0EFF0E080818860FA
:100D100080831C93FF91EF91BF91AF919F918F9131
:100D20007F916F915F914F913F912F911F910F9004
:100D30000FBE0F901F9018951F920F920FB60F9233
:100D400011242F933F934F935F936F937F938F93D0
:100D50009F93AF93BF93EF93FF938091E10080FF48
:100D60001BC08091E20080FF17C08091E1008E7F60
:100D70008093E1008091E2008E7F8093E200809179
:100D8000E20080618093E2008091D80080628093CD
:100D9000D80019BC1EBAA3DA8091E10084FF29C0F3
:100DA0008091E20084FF25C084E089BD89B582601E
:100DB00089BD09B400FEFDCF8091D8008F7D80935E
:100DC000D8008091E1008F7E8093E1008091E20065
:100DD0008F7E8093E2008091E20081608093E20048
:100DE00080917402882311F481E001C084E08EBBFD
:100DF00075DA8091E10083FF27C08091E20083FFD4
:100E000023C08091E100877F8093E10082E08EBB68
:100E1000109274028091E1008E7F8093E1008091B6
:100E2000E2008E7F8093E2008091E20080618093F7
:100E3000E20034DD80E060E042E01DDD8091F00002
:100E400088608093F00079D18091E10082FF0AC030
:100E50008091E20082FF06C08091E1008B7F809349
:100E6000E1006BD1FF91EF91BF91AF919F918F9175
:100E70007F916F915F914F913F912F910F900FBE96
:100E80000F901F9018951F93DF93CF93CDB7DEB7C8
:100E9000AC970FB6F894DEBF0FBECDBFE6E7F2E029
:100EA0008091F100819322E0EE37F207C9F780913B
:100EB000760230917702353009F487C0363040F43D
:100EC0003130C9F1313070F0333009F01DC133C019
:100ED000383009F4EFC0393009F4FEC0363009F07B
:100EE00013C192C0803821F0823809F00DC108C0CA
:100EF0009091720280917302882399F0926011C0E0
:100F000080917A0287708093E9008091EB0090E0F5
:100F100025E0969587952A95E1F7982F9170109284
:100F2000E9008091E800877F8093E8009093F100CA
:100F30001092F100CAC0882319F0823009F0E4C091
:100F400090E08F719070009721F0029709F0DDC05A
:100F50000CC080917802813009F0D7C010927302E2
:100F6000333069F5809373022AC080917802882318
:100F700031F520917A02277009F4C7C02093E90067
:100F80008091EB0080FFC1C0333021F48091EB00F1
:100F9000806213C08091EB0080618093EB0081E060
:100FA00090E002C0880F991F2A95E2F78093EA002B
:100FB0001092EA008091EB0088608093EB00109221
:100FC000E9008091E800877F83C0882309F09CC0F6
:100FD000109178028091E800877F8093E80072DCAE
:100FE00004C08EB3882309F490C08091E80080FF8C
:100FF000F8CF812F8F7711F492E001C093E09EBB70
:1010000080688093E30081C08058823008F07CC003
:10101000809178029091790223E08C3D920799F5B6
:101020005FB7F894DE0115964EE020E030E061E213
:10103000E42FF0E060935700849120FF03C0829575
:101040008F704F5F982F9F70892F805D8A3308F0D3
:10105000895F8C9311961C9211972F5F3F4F1296C8
:101060002431310529F75FBF8AE28B8383E08C83CB
:101070008091E800877F8093E800CE0103966AE2C2
:1010800070E0E4DC11C060917A02AE014F5F5F4F07
:1010900095DBBC010097C9F18091E800877F8093C0
:1010A000E80089819A812BDD8091E8008B7780931D
:1010B000E8002BC0803841F58091E800877F80935D
:1010C000E800809174028093F1008091E8008E77AF
:1010D0008093E800F7DB19C08823B1F4909178027F
:1010E000923098F48091E800877F8093E800909395
:1010F0007402E8DB80917402882311F483E001C05C
:1011000084E08EBBA0D901C096D98091E80083FF0E
:101110000AC08091EB0080628093EB008091E80030
:10112000877F8093E800AC960FB6F894DEBF0FBEC1
:10113000CDBFCF91DF911F91089508951F938EB376
:10114000882361F01091E9001092E9008091E80095
:1011500083FF01C098DE17701093E9001F91089576
:101160000895FC018EB3843021F587859089A1898B
:10117000B2890097A105B105E1F085818093E9006E
:101180008091E80082FF15C08091F200882319F455
:101190002FEF3FEF04C08091F100282F30E08091C5
:1011A000F200882341F48091E8008B778093E80077
:1011B00002C02FEF3FEFC9010895FC018EB38430C8
:1011C00011F587859089A189B2890097A105B1059C
:1011D000D1F081818093E9008091F2008823A9F009
:1011E0009091E8008091E8008E778093E80095FD6B
:1011F0000CC087DB982F882349F48091E8008E7714
:101200008093E80003C092E001C090E0892F089528
:10121000FC018EB3843051F487859089A189B2890D
:101220000097A105B10511F0CF01C7CF08951F9315
:10123000FC01162F8EB38430D9F487859089A1895B
:10124000B2890097A105B10599F081818093E900E9
:101250008091E80085FD08C08091E8008E7780933A
:10126000E8004FDB882329F41093F10080E001C0EF
:1012700082E01F9108950F931F93CF93DF93EC01AA
:101280000D96FC0189E0DF011D928A95E9F72A811C
:101290003B8109818C81882311F410E001C014E0A6
:1012A000C901DBDA182B1260802F61E8412FE3DAE5
:1012B000882329F12E813F810D818885882311F4AF
:1012C00010E001C014E0C901C8DA182B1260802FA9
:1012D00060E8412FD0DA882391F02A853B85098583
:1012E0008C85882311F410E001C014E0C901B5DA3F
:1012F000182B1260802F61EC412FBDDA01C080E015
:10130000DF91CF911F910F910895CF93DF93EC015F
:101310008091E80083FF61C0888190E020917A028B
:1013200030917B022817390709F057C08091770266
:10133000813261F0823220F4803209F04EC019C04F
:10134000823271F1833209F048C039C0809176024F
:10135000813A09F042C08091E800877F8093E800DD
:10136000CE010F9667E070E071DB8091E8008B772B
:1013700014C080917602813281F58091E800877FE8
:101380008093E800CE010F9667E070E013DCCE0199
:101390000E9470018091E8008E778093E8001DC064
:1013A000809176028132C9F48091E800877F809332
:1013B000E800809178028D87CE0135D80DC08091EC
:1013C0007602813251F48091E800877F8093E800B3
:1013D000CE0160917802C4DE75DADF91CF91089575
:1013E000FC018EB38430C1F485818093E900809143
:1013F000E80085FF11C0CB0164E070E040E050E000
:10140000EADA8091E80085FD05C08091E8008B77DD
:101410008093E80081E0089580E00895FC018EB398
:10142000843011F082E0089581818093E9008091F9
:10143000F200882331F08091E8008E778093E800F5
:1014400060CA0895FC018EB3843011F092E01BC095
:1014500081818093E9008091E80085FD02C090E0E1
:1014600012C0CB0164E070E040E050E079DA982FE0
:10147000882349F48091E80085FD05C08091E8004B
:101480008E778093E800892F08950F931F93CF9351
:10149000DF93EC010981002391F02A813B818C814B
:1014A000882311F410E001C014E0C901D6D9182B2B
:1014B0001260802F61E8412FDED98823A9F00D81C9
:1014C000002389F02E813F818885882311F410E064
:1014D00001C014E0C901C1D9182B1260802F60E847
:1014E000412FC9D9811181E0DF91CF911F910F91D7
:1014F0000895A1E21A2EAA1BBB1BFD010DC0AA1F55
:10150000BB1FEE1FFF1FA217B307E407F50720F06C
:10151000A21BB30BE40BF50B661F771F881F991FE7
:101520001A9469F760957095809590959B01AC0130
:0A153000BD01CF010895F894FFCF2C
:10153A00010003400000044000000208000000000F
:10154A00000000000000000102400000014000000D
:10155A00000003820584078609888A008C000F8EA2
:00000001FF
